:020000040800F2
:10000000E80D02200D020008692F0008952800085D
:10001000412F0008A30300084D5200080000000013
:10002000000000000000000000000000593C000833
:100030006104000800000000D13A00080D470008E4
:1000400027020008270200082702000827020008EC
:10005000270200082702000895050008270200086B
:10006000270200082702000827020008A50300084D
:1000700027020008270200082702000827020008BC
:1000800027020008270200082702000827020008AC
:10009000270200082702000827020008270200089C
:1000A000270200082702000827020008270200088C
:1000B000270200082702000827020008270200087C
:1000C000270200082702000827020008270200086C
:1000D000270200082702000827020008270200085C
:1000E0009B050008270200082702000827020008D5
:1000F000270200082702000827020008B1030008B1
:10010000270200082702000827020008270200082B
:100110002702000819490008094800082548000876
:10012000270200082702000827020008270200080B
:1001300027020008650400082702000827020008BB
:1001400027020008270200082702000827020008EB
:1001500027020008270200082702000827020008DB
:1001600027020008270200082702000827020008CB
:1001700027020008270200082702000800000000EC
:1001800027020008270200082702000827020008AB
:10019000270200082702000827020008270200089B
:1001A000270200082702000827020008270200088B
:1001B000270200082702000827020008270200087B
:1001C000270200082702000800000000270200089C
:1001D000270200082702000827020008270200085B
:1001E000270200082702000827020008270200084B
:1001F0002702000827020008DFF80CD000F0A2F860
:1002000000480047295C0008E80D022006488047A6
:1002100006480047FEE7FEE7FEE7FEE7FEE7FEE7EB
:10022000FEE7FEE7FEE7FEE7B5470008F901000834
:100230002DE9F05F0546002092469B46884606461B
:10024000814640241BE0284641464746224600F0AE
:1002500069F853465A46C01A914110D311461846C0
:10026000224600F050F82D1A67EB01084F4622464F
:100270000120002100F047F817EB00094E41201E35
:10028000A4F10104DFDC484631462A464346BDE876
:10029000F09F40EA01039B0703D009E008C9121F41
:1002A00008C0042AFAD203E011F8013B00F8013B30
:1002B000521EF9D27047D2B201E000F8012B491E5C
:1002C000FBD270470022F6E710B513460A460446F3
:1002D0001946FFF7F0FF204610BD30B50B4601462A
:1002E00000202022012409E021FA02F59D4205D3D5
:1002F00003FA02F5491B04FA02F52844151EA2F17F
:100300000102F1DC30BD202A04DB203A00FA02F1C0
:10031000002070479140C2F1200320FA03F31943F3
:1003200090407047202A04DB203A21FA02F0002195
:10033000704721FA02F3D040C2F1200291400843F5
:1003400019467047064C074D06E0E06840F001038F
:1003500094E8070098471034AC42F6D3FFF750FFFB
:10036000905F0008B05F000830B58C1810F8012BC2
:1003700012F00F0301D110F8013B120906D110F859
:10038000012B03E010F8015B01F8015B5B1EF9D162
:1003900001E001F8013B521EFBD1A142E6D300204F
:1003A00030BDFEE7014800F053BA000028090220E2
:1003B000014800F04DBA00008809022001681823A6
:1003C000CAB2103AB2FBF3F2054B6FF30901032AEC
:1003D0009B5CC36500D9091D816508467047000014
:1003E000705F000810B583694FF0C074826A0146DF
:1003F000002053B1B3F5005F15D072B1012A0CD0C3
:10040000022A0AD0032A09D104E01AB1012A06D02F
:10041000022A03D1C96AC90100D5012010BDC96AE9
:10042000A142FAD010BD002AF7D0012AF2D0022A48
:10043000F3D0032AF3D010BD30B50468256825F445
:1004400080252560046863608368402B036803D0BF
:1004500099600068C26030BD9A600068C16030BDBC
:1004600070470000014800F086BB000074020220C3
:100470002DE9F041044621B14FF40061C800C4E900
:100480000201E0690025002862D028462368D4E9EB
:10049000021C3A4F40261A6841EA0C0101433A40D7
:1004A00041F400701043186020680768012000F0D4
:1004B0004FFB20680760206846602068466801207E
:1004C00000F046FB20684FF6417246602068856068
:1004D0002068C56021688869104040F0800088610C
:1004E00020688669012000F033FB2068866120685F
:1004F000C5612068C569012000F02AFB2068204BF7
:100500002049C561206800F5805082691A40114376
:100510008161206800F580508569012000F018FB9A
:100520002068194900F580508561206800F58050E9
:100530000160206800F580500568012000F008FB8C
:10054000206800F580500560A069012803D009E00B
:100550004FF480609AE720680C4A00F58050C1692A
:100560001143C16160690A4982880A640278D0F83F
:10057000010042EA00204864BDE8F0810F8120FFBD
:10058000233FDEF8040020028020C1024000010069
:1005900000800240012000F04DBD4FF4806010B596
:1005A00000F048FD4FF4006000F044FD4FF40050AF
:1005B00000F040FD4FF4804000F03CFDBDE81040ED
:1005C0004FF4004000F036BD1A490A681A4800EEA0
:1005D000102A9FED1A1B42F21072B8EE400B80ED0C
:1005E000140B0A6030EE411B9FED162B90ED1E0B95
:1005F000B6EE003B9FED175B01EE020B80ED1E0B8C
:100600009FED120B90ED182B90ED1A4B22EE000B84
:1006100001EE030B9FED111B04EE050B80ED160B95
:1006200020EE011B80ED1A2B80ED180B803080ED41
:10063000181B704724080040000002200000000042
:100640000088C340B6B7722E79C72F3F3333333398
:100650003333D33F9A9999999999C93FEC51B81E70
:1006600085EBB13F7047704770B54379012B1AD0C5
:100670000124447102230371056840F6FE76D1E936
:1006800000310B4329689640B1439340C0260B4389
:100690002B60016896400A68B2430A600023047127
:1006A0004371184670BD022070BD704770B5044696
:1006B00000680425416B89040ED525712269E90281
:1006C00042F00102226141632068016821F48051F7
:1006D00001602046FFF7E9FF2068416B890011D5D2
:1006E000257122694FF0005142F0020222614163FC
:1006F0002068016821F0805101602046BDE870400B
:10070000FFF7B1BF70BD70B5040003D0207900259C
:1007100010B105E0012070BD2046657100F008F8B9
:1007200002212171012025612071002070BD00008F
:1007300010B586B0044614216846FFF7C3FD15497D
:100740002068884223D11448016841F000510160BB
:10075000006800F0005005900F481038016841F023
:100760000101016000680321002200F001000590F2
:1007700030208DE807000948694600F067FC002238
:100780000121362000F0B8FD362000F0A7FD06B0AC
:1007900010BD0000007400404038024000000240DC
:1007A00008B50029016800910068104404D0143095
:1007B00000900360002008BD0830F9E730B54279A9
:1007C000012A17D00122427102240471002902FA81
:1007D00001F301680C6844EA03040C6001680B68CB
:1007E0000AD00D6803F48024B4F5802F05F460135B
:1007F0000FD015E0022030BD0C6803F00403042B79
:1008000004F038040CD1382C0AD14B6843F00103B2
:1008100005E0B3F5601F03D14B6843F002034B6062
:10082000002102714171084630BD90F8351002294F
:1008300003D08021416501207047052180F83510E3
:100840000068016821F0010101600020704700008C
:100850002DE9F84304464FF00009644B0820CDF819
:1008600000904FF41652A56D94F85C101B682E682A
:10087000B3FBF2F700FA01F131420FD021680A68A8
:1008800052070BD50A6822F004020A6094F85C1043
:100890008840A860606D40F00100606594F85C10CD
:1008A0004FF0010808FA01F0304208D02168496988
:1008B000090604D5A860606D40F00200606594F8F8
:1008C0005C1004208840304208D0216809688907FC
:1008D00004D5A860606D40F00400606594F85C1079
:1008E00010208840304218D021680968090714D5C3
:1008F000A86020680168490304D50068000308D592
:10090000A16C07E00168C90503D4016821F0080162
:100910000160216C09B12046884794F85C102020C2
:100920008840304231D021680968C9062DD5A860B9
:1009300094F8350005282068016806D0490347D59A
:10094000006800031DD4616C1CE021F016010160F9
:100950002068416921F080014161206C08B9A06CD8
:1009600020B12068016821F00801016094F85C3032
:100970003F229A40AA6084F8349084F83580216D33
:100980001FE0E16B09B120468847606D00282BD03D
:10099000606DC00714D0052084F835002068016818
:1009A00021F0010101600098401C0090B84203D87A
:1009B00020680068C007F6D184F8349084F8358048
:1009C000E16C002910D001B02046BDE8F043084793
:1009D0000168C905D5D4036823F01003036084F8C7
:1009E000349084F83580CCE7BDE8F8839801022084
:1009F0002DE9F047044600F01FFC054664B14FF0B6
:100A0000000984F83490022184F8351020680168C8
:100A100021F0010101600EE00120BDE8F08700BF78
:100A200000F00AFC401B052805D920216165032040
:100A300084F83500F1E720680068C007F0D1D4E9F8
:100A40000020D4E90251D4E9043C284304F11805FC
:100A500019430843116895E8E00140EA0C001C4B7B
:100A60002843194040EA060040EA0700B8F1040FA5
:100A700040EA010003D1D4E90B1319430843106085
:100A800020680126656A4069042D20F0070045EAC8
:100A900000050CD1D4E90A01054341B12046FFF716
:100AA000A1FC20B14020606584F83560B4E720687F
:100AB00045612046FFF782FC94F85C303F229A4063
:100AC0008260C4F8549084F835600020A5E70000E7
:100AD0003F8010E02DE9F041044690F834000025F5
:100AE0000128A66D0ED094F835C00127002084F8A7
:100AF0003470BCF1010F07D0022584F83400284679
:100B0000BDE8F0810220FBE7022784F835706065BC
:100B10002046FFF791FC94F85C103F208840B060BD
:100B20002068016841F0160101602068416941F0C8
:100B300080014161206C20B12068016841F008010A
:100B400001602068016841F001010160D7E7000001
:100B500070B5044600F070FB0546601C02D00448E6
:100B60000078044400F068FB401BA042FAD370BD3B
:100B70008C010220704770B504460068002500F51E
:100B8000805001264169490608D5204600F0E5F964
:100B90002068402100F58050416109E04069C007AC
:100BA0000AD0204600F0DAF9206800F5805046614E
:100BB00084F8446084F845504FF48031206800F593
:100BC00080504161206800F58050406900040CD5D8
:100BD0002046FFF7CFFF20684FF4004100F580501A
:100BE000416184F8446084F8455070BD2DE9FC47AC
:100BF0004FF000060400B146009603D094F844007C
:100C000018B107E00120BDE8FC87204684F8456064
:100C100000F0E4F86748016841F480410160006831
:100C200000F4804001906448016821F400010160F3
:100C30000168226A11430160206800F58050016854
:100C400041F00101016000F0F7FA4FF4FA77054630
:100C500009E000BF00F0F0FA401BB84203D90320BE
:100C600084F8440068E0206800F580500068C00700
:100C7000F0D12068006920F01C0500F0A9FF4F4A60
:100C80004F4902448A4202D245F0080516E04D4918
:100C90004D4A0144914202D245F00C050EE04B4A08
:100CA0004B4902448A4209D34A4A4B49104488427C
:100CB00002D245F0040501E045F010052068056109
:100CC00000214FF40042204600F04AF94FF00105A0
:100CD000B0BBFF20FFF73CFF606890B300F0ACFAB8
:100CE000804641F2883701216A46204600F0F2F83A
:100CF00000F0A2FAA0EB0800B84217D8009840070D
:100D0000F1D5002120464FF4805200F029F9B8B9FE
:100D100000F092FA80466A460121204600F0DAF897
:100D200000F08AFAA0EB0800B8420BD90121204656
:100D3000FFF79EFB84F84450032084F8456062E787
:100D400024E018E000988006E5D51F216A46204679
:100D500000F0C0F8D0B90098C10603D54FF4006187
:100D6000E16000E0E660400701D5A66019E04FF4BD
:100D70008040A06015E0D4E90210C00840EA5100AC
:100D800082B22046002100F0EBF830B1012120466C
:100D9000FFF76EFB84F8445034E740F6FF70FFF72E
:100DA000D7FE49462046FFF763FB84F844500020F5
:100DB00029E70000443802400438014000D3CEFE49
:100DC000C0E1E40040F1E9FD40787D0100796CFC70
:100DD000005A6202001F0AFA80F0FA02F0B587B0EA
:100DE000044614216846FFF76DFA344920688842AA
:100DF00061D13348016841F000710160016801F080
:100E000000710591016841F080610160016801F0A5
:100E100080610591016841F000610160016801F0A5
:100E200000610591016841F004010160016801F071
:100E300004010591016841F001010160016801F0C0
:100E400001010591016841F002010160016801F0B2
:100E500002010591016841F040010160006802242F
:100E60000025694600F04000059003260B2732203C
:100E70008DE8F100134800F0E9F8862069468DE816
:100E8000F100114800F0E2F8200369468DE8F10016
:100E90000E4800F0DBF84FF4205069468DE8F10071
:100EA0000B4800F0D3F800223D20114600F024FA50
:100EB0003D2000F013FA07B0F0BD000000800240B2
:100EC00030380240000802400000024000040240A6
:100ED000001802402DE9F047044690F8440091467E
:100EE00082281DD082224FF6FF7084F844204FF4F0
:100EF000F863226803EA8111258A136900EAC52094
:100F000003F01C031843014321F0020040F00105E7
:100F1000156100F091F9012706464FF4803811E081
:100F20000220BDE8F08700BF00F086F9801B404535
:100F300006D3002084F8447084F845000320F0E7CD
:100F400020680569E807EFD12068406981B2C9F8D7
:100F5000001084F844700020E3E7704770470000F9
:100F60002DE9F041044690F8440042281ED042206A
:100F70004FF6FF7384F8440096B220684FF4F86788
:100F8000258A07EA81110269466103EAC5202368C0
:100F900002F01C021043014341F003051D6100F003
:100FA0004BF9012706464FF4803811E00220BDE8D6
:100FB000F08100BF00F040F9801B404506D30020BF
:100FC00084F8447084F845000320F0E72068056940
:100FD000E807EFD184F84470E9E700001449B0F560
:100FE000806F70B54FF00104D1E90F258E6C11D0E0
:100FF0000A46B0F5006F536CD26B43EA02020ED082
:10100000B0F5804F0FD0B0F5004F02D12A4300D188
:101010008C6470BD15433543FBD14C6470BD3243C5
:10102000FCD10C6470BD2B433343FBD1CC6370BD4A
:1010300000000220044910B50A68024202D008608C
:10104000FFF7CCFF10BD0000143C01402DE9F84F24
:10105000DFF89CE100224FF001084FF0030B4FF046
:101060000F0A00BF0B6808FA02F42340A34271D1B3
:101070004D68022D01D0122D0FD1D5080E695707EA
:1010800000EB8505A9462D6AFF0E0AFA07FCBE4053
:1010900025EA0C052E43C9F820600F795500066833
:1010A0000BFA05FC07F0030726EA0C06AF403743AE
:1010B00007604E68012E05D0022E03D0112E01D0FC
:1010C000122E0ED18668CF6826EA0C06AF40374351
:1010D000876046680F79A643C7F3001797403743E8
:1010E0004760C4688E6824EA0C04AE402643C6609C
:1010F0004C68E40075D53F4C256845F48045256073
:10110000246822F00306950704F4804400943A4CC6
:101110002D0F2644D6F80848DFF8E0C00AFA05F794
:10112000604524EA070401D100272EE0344FB8427D
:1011300001D1012729E0334FB84201D1022724E031
:10114000314FB84201D103271FE0304FB84202D1DE
:1011500004271AE045E02E4FB84201D1052714E0DC
:101160002C4FB84201D106270FE02B4FB84201D1D6
:1011700007270AE0294FB84201D1082705E0284F88
:10118000B84201D1092700E00A27AF40274375463E
:10119000C6F808784E68DEF80040F60324EA030437
:1011A00000D51C43124E2C60361D4D683468AD03CB
:1011B00024EA030400D51C430D4F346008374D6802
:1011C0003C68ED0224EA030400D51C43084D3C6052
:1011D0000C354E682C68B60224EA030400D51C4383
:1011E0002C60521C102AFFF43DAFBDE8F88F0000C0
:1011F000003C014044380240003001400000024001
:101200000004024000080240000C024000100240AE
:101210000014024000180240001C0240002002405E
:10122000002402400069084000D0012070470AB144
:10123000816170470904FBE701488068704700003E
:101240008C01022002488168027811448160704755
:101250008C010220032010B500F06EF8002000F091
:1012600005F800F023F8002010BD000070B50D4D0A
:1012700004464FF47A700C4A29781268B0FBF1F0FA
:10128000B2FBF0F000F098FE48B9102C07D2002213
:101290002146501E00F030F800206C6070BD012027
:1012A00070BD00008C010220980102200A4808B598
:1012B000016841F080510160006800F080500090AA
:1012C0000548001D016841F480410160006800F498
:1012D0008040009008BD000040380240002809DB33
:1012E000410900F01F028900012001F1E021904036
:1012F000C1F80001704700000E4BF0B41B680D46AA
:10130000C3F30223C3F10706042E00D90426191DD6
:10131000072901D2002300E0DB1E012404FA06F1B4
:101320009C40491E2940641E994014402143F0BC52
:1013300003F0A2BF0CED00E0064900F0070210B573
:101340004FF6FF040868044B204040EA022018438F
:10135000086010BD0CED00E00000FA0501680123F3
:10136000C0F8FC33002280F8F4238869044A40F076
:1013700000608861486D1043486500207047000098
:10138000030000102DE9F04104008AB004D094F865
:10139000BD03002520B108E001200AB0BDE8F081BE
:1013A000204684F8BC5300F063F8032084F8BD03A2
:1013B000206803F03DFE04F11001684628228846AB
:1013C000FEF767FF94E80F0003F00CFD0227E0BB77
:1013D0002068002103F054FE0020012611E000BF28
:1013E000C0EBC001421C04EB810181F83D6081F833
:1013F0003F504D648D640D6581F83C00A1F84200BA
:10140000D0B261688142EBD8002011E0C0EBC0018E
:10141000421C04EB810181F8FD5181F8FF51C1F8B4
:101420000452C1F80852C1F8105281F8FC01D0B240
:1014300061688142EAD8282241466846FEF729FFC2
:1014400094E80F0003F02CFD10B184F8BD73A3E7FE
:10145000606A84F8385084F8BD63012802D12046C0
:10146000FFF77CFF206803F00FFD002095E70000E8
:1014700030B587B0044614216846FEF723FF206884
:10148000B0F1A04F33D11B48016841F00101016068
:10149000006800240221184D00F0010005904FF46F
:1014A000E8500A238DE8130003226946CDE903239F
:1014B0002846FFF7CBFD68156946CDE900042846AC
:1014C0000294FFF7C3FD0B48001D016841F0800145
:1014D0000160006800F08000059006481430016843
:1014E00041F480410160006800F48040059007B03D
:1014F00030BD000030380240000002401848F8B506
:10150000016841F0805101600068164C00F0805085
:101510000090206840F480302060FFF78DFE4FF48B
:101520007A76054605E000BFFFF786FE401BB04215
:101530000FD86068C003F7D5206840F40030206001
:10154000FFF77AFE054606E0FFF776FE401BB04245
:1015500001D90320F8BD60688003F5D50020F8BDEF
:1015600040380240007000402DE9F84F04460078F2
:10157000DFF824944FF000063746C0070ED0D9F8A4
:10158000001021F40001C9F80010D9F80010626BB6
:101590001143C9F80010606B00B90126FE4D2068A8
:1015A000843500030ED5E16B286820F44010084311
:1015B0002860E06BB0F5801F01D010B102E0012679
:1015C00000E0012720684FF4800BC0020CD5216C8D
:1015D000286820F4400008432860206C584501D159
:1015E000012601E000B901272068C10100D50126CC
:1015F000800666D5E8483830016841F080510160C6
:101600000068DFF898A300F080500090DAF800102E
:1016100041F48071CAF80010FFF70EFE804605E025
:10162000FFF70AFEA0EB080064287DD8DAF8000076
:10163000C005F5D5DFF8608308F16808D8F8000028
:1016400010F440702AD0218E01F44071814225D0DF
:10165000D8F80010D8F8002021F4407142F480320C
:10166000C8F80020D8F8002022F48032C8F8002002
:10167000C8F80010D8F80000C0070FD0FFF7DCFD55
:10168000824607E0FFF7D8FDA0EB0A0141F288305F
:101690008142CAD8D8F800008007F3D5206BC0F388
:1016A000012103297ED0D9F8001021F4F811C9F8DE
:1016B0000010228ED8F80010C2F30B021143C8F8B4
:1016C00000102078C00607D5286820F080702860B8
:1016D0002868A16B084328602188AF4888304904F6
:1016E00005D5626E016821F4403111430160218803
:1016F000090405D5A26E016821F44021114301605F
:101700002168C90305D5E26E016821F44011114337
:1017100001602168890305D5226F016821F4400129
:1017200011430160217800E034E1490605D5626C7F
:10173000016821F00301114301602178090605D5F4
:10174000A26C016821F00C01114301602188C905D8
:1017500005D5E26C016821F0300111430160218858
:10176000890505D5226D016821F0C0011143016092
:101770002188490505D5626D016821F44071114346
:1017800001602188090505D5A26D016821F4406139
:10179000114301602188C90407D5E26D016821F475
:1017A000405100E05FE0114301602188890405D5C4
:1017B000226E016821F44041114301602168490211
:1017C00005D5A26F016821F0806111430160216895
:1017D0004FF0006A890209D5E26F016821F00061CB
:1017E00011430160E16F514500D1012721680A07CB
:1017F00000D50127490305D5626F016821F04071CA
:10180000114301602168090206D5D4F880200168DF
:1018100021F08051114301602168490106D5D4F8B7
:101820008420016821F0005111430160206800010B
:1018300006D5D4F88810286820F000700843286086
:101840002068C00006D5D4F88C10286820F080608D
:1018500008432860DFF84891012E0ED02068B0F1CF
:10186000007F0AD08FE04F4AD9F80030104023F4AF
:10187000F8120243C9F800201BE7D9F800004E46D1
:1018800020F08060C9F80000FFF7D6FC804605E034
:10189000FFF7D2FCA0EB080064287BD83068000179
:1018A000F6D421783C487C30C90712D0616B81B9ED
:1018B000237A62680168D0F800C09201C1F3014147
:1018C00042EA0142CCF3036142EA016141EA037159
:1018D000016021680A0303D5E26BB2F5801F04D0D2
:1018E000C9021AD5216C594517D16368016894F86B
:1018F0000CC002689B01C1F3014143EA0141C2F3FC
:10190000027241EA0C6141EA027101602968626A6F
:1019100021F01F01521E114329602168C90110D511
:10192000238A62680168D0F800C09201C1F30361A4
:1019300042EA034242EA0162CCF3027142EA0171D7
:101940000160216889010CD56168228A237B94F8A3
:1019500008C0890141EA024141EA036141EA0C7190
:1019600001603168B04641F080613160FFF764FC8E
:10197000064604E0FFF760FC801B64280AD8D8F80C
:1019800000000001F6D5E7B3D9F800004E4620F07C
:10199000805009E07BE00000083802400070004001
:1019A00000380240FFFCFF0FC9F80000FFF744FCBD
:1019B000074604E0FFF740FCC01B642867D8306886
:1019C000C0438000F6D5216835480A0301D5E26B93
:1019D0001AB1C9021DD5216CD9B963690168277E86
:1019E00002689B01C1F3014143EA0143C2F3027162
:1019F00043EA076242EA0171016029686FF0FF0360
:101A000000E04BE0A26A21F4F85103EB02221143FB
:101A100029602168890212D5E16F51450FD1238CCD
:101A20006269016807689201C1F3036142EA0342F7
:101A300042EA0162C7F3027142EA01710160217852
:101A4000090716D561690268D0F800C08B01277FAD
:101A5000C2F30362CCF3014143EA014141EA02616E
:101A600041EA077101602868E16A20F440300843C8
:101A70002860306840F080503060FFF7DDFB04469E
:101A800008E000BFFFF7D8FB001B642802D9032041
:101A9000BDE8F88F3068C0438000F3D40020F7E73A
:101AA000883802402DE9F04705000F4663D0444EC8
:101AB000306800F00F00B84209D2306820F00F0003
:101AC00038433060306800F00F00B84253D12868C6
:101AD0003C4C810712D5400703D5206840F4E05004
:101AE00020602878000703D5206840F4604020601B
:101AF000A968206820F0F000084320602878C0071B
:101B00002AD0304968680839012810D009680228AD
:101B100010D0890700292EDA216821F00301014342
:101B20002160FFF789FB804641F288390DE00968A2
:101B30008903EFE78901EDE7FFF77EFBA0EB0801E2
:101B4000494502D90320BDE8F0876868216801F0A3
:101B50000C01B1EB800FEFD1306800F00F00B842FC
:101B60000BD9306820F00F0038433060306800F047
:101B70000F00B84201D00120E5E72878400705D5DD
:101B8000E968206820F4E0500843206028780007C6
:101B900006D52869216821F4604141EAC00020602F
:101BA00000F03CF82168084AC1F30311515CC840B9
:101BB000064908600020FFF759FB0020C3E700003A
:101BC000003C024008380240785F0008980102207B
:101BD0000148006870470000980102200449054848
:101BE00009680068044AC1F38221515CC84070470B
:101BF0000838024098010220885F0008044905481F
:101C000009680068044AC1F34231515CC84070471A
:101C10000838024098010220885F0008154910B575
:101C20001548096811F00C0213D04110042A0FD096
:101C3000082A0ED10F4C241F2268236802F03F02AD
:101C40005B0207D52068C0F38810A0FB010106E005
:101C5000084610BD2168C1F38811A1FB00010023D3
:101C6000FEF7E6FA2168C1F30141491C4900B0FBC7
:101C7000F1F010BD083802400024F4002DE9F84FBF
:101C800005004FF000076ED02878DFF82093A9F107
:101C9000040AC007AAF104044CD0D9F80010484641
:101CA000C1F38101012908D00068C0F38100022836
:101CB0000AD1DAF80000400206D52068800339D541
:101CC00068680028DFD035E06868B0F5803F0BD049
:101CD00010B1B0F5A02F11D0206820F48030206022
:101CE000206820F4802002E0206840F480302060EA
:101CF000686890B1FFF7A0FA06460AE0206840F451
:101D000080202060F0E700BFFFF796FA801B642870
:101D100072D820688003F7D50CE0FFF78DFA0646ED
:101D200005E000BFFFF788FA801B6428F0D8206820
:101D30008003F7D42878800742D5D9F800104846A8
:101D400011F00C0F08D00068C0F3810002280BD1FD
:101D5000DAF80000400207D42068800718D5E86848
:101D6000012800D114E01EE1E8680028206817D09F
:101D700040F001002060FFF75FFA064605E000BF73
:101D8000FFF75AFA801B0228C2D820688007F7D5CF
:101D90002869216821F0F80141EAC00020600FE0C5
:101DA00020F001002060FFF747FA064605E000BF7B
:101DB000FFF742FA801B02281ED820688007F7D45C
:101DC0002878000729D5794869696C300029804650
:101DD000016812D041F001010160FFF72DFA0646BB
:101DE00005E000BFFFF728FA801B022804D8D8F8C6
:101DF00000008007F6D510E089E021F001010160C4
:101E0000FFF71AFA064604E0FFF716FA801B0228CD
:101E10007DD8D8F800008007F6D4287840076BD525
:101E2000DFF8888108F13808D8F80000C0000BD42A
:101E3000D8F8001041F08051C8F80010D8F8000020
:101E4000012700F08050009059480168C90512D45C
:101E50000168834641F480710160FFF7EDF90646A1
:101E600005E000BFFFF7E8F9801B64284FD8DBF8D6
:101E70000000C005F6D54D4EA868683601280AD086
:101E800008B1052811D0306820F0010030603068BA
:101E900020F0040002E0306840F001003060A868E3
:101EA000A0B1FFF7C9F983460CE0306840F00400A8
:101EB0003060F0E7FFF7C0F9A0EB0B0141F288308A
:101EC000814268D830688007F4D50EE0FFF7B4F996
:101ED000834607E0FFF7B0F9A0EB0B0141F2883031
:101EE000814258D830688007F4D42FB1D8F8001058
:101EF00021F08051C8F80010A869E0B3D9F80010AB
:101F0000C1F3810102294ED00228206800E042E09E
:101F100020F08070206003D0FFF78EF905463DE089
:101F2000FFF78AF9064604E0FFF786F9801B0228CE
:101F300031D820688001F7D4D5E90921DFF874C0D1
:101F4000D5E9070695F830304F0895F82C10304346
:101F50000CEB074545EA8212104340EA016040EA73
:101F60000370CAF80000206840F080702060FFF71E
:101F700063F9054605E014E0FFF75EF9401B02280F
:101F800009D820688001F7D50BE000BFFFF754F9AE
:101F9000401B022802D90320BDE8F88F2068800189
:101FA000F4D40020F8E70120F6E7000008380240EA
:101FB000007000400000FFFF401EB0F1807F10B5B0
:101FC00001D3012010BD4FF0E02460610F216017A4
:101FD00003F052F90020A0610721216110BD704774
:101FE0007047704770B590F83C20012A24D0134CFC
:101FF000012580F83C50022280F83D200268536899
:10200000A242966802D00E4CA24203D14C6823F43F
:10201000700323430C6823F0700389681C435460E9
:10202000002326F0800602683143916080F83D501D
:1020300080F83C30184670BD022070BD00000140A1
:102040000004014010B5040003D094F83D0010B125
:1020500007E0012010BD002084F83C00204600F07D
:102060000DF8022084F83D002068211D02F0E0FBFD
:10207000012084F83D00002010BD000008B5154A7D
:102080000168154891420ED1016841F010010160CC
:1020900000680022012100F0100000903620FFF7B8
:1020A0002BF9362010E00D4A914211D1016841F020
:1020B0002001016000680022042100F0200000904F
:1020C0003720FFF719F93720BDE80840FFF706B9B8
:1020D00008BD0000001000404038024000140040DD
:1020E0000168094ACB6843F00103CB600168886846
:1020F0001040062806D0B0F5803F03D0086840F0B5
:102100000100086000207047070001002DE9F04140
:1021100004000D4603D094F83D0018B108E00120FA
:10212000BDE8F081002084F83C00204600F042F831
:102130001F4A022084F83D002068816811408160B8
:102140002068211D02F074FB226840F20336AF695B
:1021500040F60C4C2B684FF2F00EA86891680B43C8
:102160009169B14341EA07210843D5E9031720EA01
:102170000C00D5E9076C20EA0E00D2F820E03F0100
:1021800040EA062668686D69314347EA0C37936078
:1021900023680F4301229F612EF0AA0141EA051333
:1021A00021681843086284F83D200020B8E7000049
:1021B000F8BFFEFF30B587B0044614216846FEF72D
:1021C00081F828480025284B226810382549022428
:1021D0009A4228D10A6842F002020A60096801F0B6
:1021E00002010591016841F001010160016801F0FF
:1021F00001010591016841F0040101600068694630
:1022000000F00400059040208DE831001748039449
:102210000494FEF71BFF802069468DE831001448C6
:10222000039404941AE0134B9A4219D10A6842F0BD
:1022300004020A60096801F004010591016841F097
:10224000080101600068694600F0080005904FF43D
:1022500040508DE83100084803940494FEF7F6FEE0
:1022600007B030BD4038024000040040000002408A
:102270000008024000080040000C024010B504466F
:10228000006891B1042904D00122002102F036FB3C
:10229000206801225FF0040102F030FB2068016831
:1022A00041F001010160002010BD01220021F3E78F
:1022B000704770B50446006800250169C943890765
:1022C00015D4C168C943890711D4EA1E02610121EE
:1022D0002177206880698007204602D0FFF7E8FF59
:1022E00004E000F0A7F8204600F0A5F82577206864
:1022F0000169C943490717D4C168C943490713D4C1
:1023000002216FF00402026121772068806910F4D5
:10231000407F204602D0FFF7CBFF04E000F08AF8B0
:10232000204600F088F8257720680169C94309072D
:1023300016D4C168C943090712D404216FF00802FA
:10234000026121772068C0698007204602D0FFF72C
:10235000AFFF04E000F06EF8204600F06CF825773F
:1023600020680169C943C90617D4C168C943C906B1
:1023700013D408216FF01002026121772068C06930
:1023800010F4407F204602D0FFF792FF04E000F0F7
:1023900051F8204600F04FF8257720680169C943BD
:1023A000C90708D1C168C943C90704D1891E0161A1
:1023B000204600F041F820680169C943090609D4A4
:1023C000C168C943090605D46FF080010161204648
:1023D000FFF706FE20680169C943C90509D4C16831
:1023E000C943090605D46FF4807101612046FFF7E7
:1023F000F6FD20680169C943490609D4C168C9438B
:10240000490605D46FF040010161204600F026F82E
:1024100020680169C94389060BD4C168C94389068C
:1024200007D46FF0200101612046BDE87040FFF73E
:10243000D8BD70BD7047704710B503F0E3F8064C87
:10244000A06A052803DA401CA062052803DB02F01D
:102450002FFE0020A06210BD0000022070477047D0
:102460002DE9F041026804460025D069116893689F
:1024700010F00F0F5BD003F0010601F490773743A3
:1024800069D0C70707D0CF0505D501271762E26FCE
:1024900042F00102E267820708D5DA0706D0276812
:1024A00002223A62E26F42F00402E267420708D574
:1024B000DA0706D0236804221A62E26F42F00202B1
:1024C000E26702070AD501F02002324306D02368F2
:1024D00008221A62E26F42F00802E267E26F002A05
:1024E00032D0800605D5880603D5216E09B1204675
:1024F00088472168E06F8968490601D4000725D51F
:10250000204602F0FCFA20688168490619D58168E6
:1025100021F040018160E06E98B11A490165E06EDA
:10252000FEF783F900280FD0E06E016D06E0830608
:1025300011D58B060FD5216E12E02046BDE8F04183
:1025400008472046FFF78BFFBDE8F0812046FFF7E4
:1025500086FFE567F8E7030605D50B0603D5616E30
:102560000029EAD1F0E74006EED54806ECD513681D
:102570002021204623F0400313606167656600F068
:1025800087F9E1E7294A000810B5040002D0606F1E
:1025900010B107E0012010BD002084F87000204633
:1025A00000F026F8242060672068016821F001010E
:1025B0000160204602F0BCFA0128ECD0606A10B13C
:1025C000204602F0AFF92068416821F49041416053
:1025D0002068816821F02A0181602068016841F04B
:1025E000010101602046BDE8104002F0FFB9000083
:1025F0002DE9F04786B0074614216846FDF762FED4
:102600004A4802254A4B03263A68103847490024B5
:102610009A426AD10A6842F480120A60096801F499
:1026200080110591016841F002010160016801F02B
:1026300002010591016841F00401016000684FF456
:1026400080584FF00809CDF8008000F00400039690
:102650006946CDE904903748CDE90154FEF7F6FC10
:1026600002AA3548694682E85002CDE90085FEF7A6
:10267000EDFC324E4FF48069314B4FF000684FF45F
:10268000003A30463360C6E90184C6E90349746103
:10269000B461C6E9074A7462FEF7AAF908B1FDF70A
:1026A000E1FF284D4023FE6605F10800B763244A88
:1026B00080E818026C61A832AC612846C5E9074A77
:1026C0006C62C5E90028FEF793F908B1FDF7CAFF6F
:1026D000BD6600220321AF633520FEF70DFE3520D5
:1026E000FEF7FCFD06B0BDE8F087174B9A42F9D122
:1026F0000A6842F480220A60096801F48021059189
:10270000016841F00801016000680721029400F0AF
:1027100008000590CDE903614FF440706946CDE9AA
:1027200000050A48FEF792FCDCE700004038024052
:102730000050004000040240000802402809022026
:10274000106002408809022000480040000C02404E
:1027500070B50446806F20283FD149B342B394F846
:102760007000012839D0E06E012684F870600025E1
:1027700061652223A4F85820E567A367D0B1184902
:102780001346C163E16E17480864E16E1648C864D9
:10279000E06E0565666D2168E06E32462431FEF715
:1027A00099F938B11021E167202084F870506067F2
:1027B000012070BD84F870502068016841F4807178
:1027C00001602068816841F00101816020688168B2
:1027D00041F040018160002070BD022070BD00000A
:1027E000834A0008BD4A00083D4A0008014901200B
:1027F00008707047000002207047000070B5044662
:10280000406F20283BD161B35AB394F8700001287F
:1028100035D0A4F85020A4F852200025A06E012342
:10282000E164212184F87030E5676167D8B115490A
:102830001346C163A16E14480864A16E1348C864AE
:10284000A06E05652068A66E00F12802E16C304696
:10285000FEF740F938B11021E167202084F870506C
:102860006067012070BD21684020086284F87050C4
:102870002068816841F080018160002070BD0220E5
:1028800070BD0000C74A0008F54A00083D4A00082C
:1028900070477047FEE700007CB5104801250E4CDC
:1028A00000218022E123C0E90045018214048DF853
:1028B00000108DF801206A468DF802308DF8041062
:1028C0008DF803108DF80510C0E90521C0E9071443
:1028D000FEF78CF97CBD00000080024074020220EB
:1028E0002DE9F04F87B014216846FDF7EBFC8948CD
:1028F000016841F004010160016801F004010591E3
:10290000016841F020010160016801F0200105919A
:10291000016841F080010160016801F080010591CA
:10292000016841F001010160016801F001010591B8
:10293000016841F002010160016801F002010591A6
:10294000016841F010010160016801F0100105917A
:10295000016841F008010160016801F0080105917A
:10296000016841F04001016000680022DFF8A8A181
:10297000102100F0400005905046FEF758FCDFF8AB
:102980009CB1002204215846FEF751FC6448002205
:102990000121FEF74CFC6348002244F2C701FEF718
:1029A00046FC4FF48058604801224146FEF73FFC48
:1029B00040F6FC095D4800224946FEF738FC5C48B9
:1029C00000224C21FEF733FC002669464FF40050EC
:1029D00000905848CDE901065846FEF737FB564FA0
:1029E0000124694650460294CDE90047FEF72EFBCC
:1029F00040F226406946CDE9000650460294FEF7B3
:102A000025FB1020694602258DE8310050460395CC
:102A1000FEF71CFB042069468DE8310058460395FB
:102A2000FEF714FB00946946CDE901453C48039547
:102A3000FEF70CFB472069468DE8310039480395C5
:102A4000FEF704FB4FF420606946CDE900063648E6
:102A50000294FEF7FBFACDF800806946CDE90165E6
:102A600031480395FEF7F2FA4FF440406946CDE94C
:102A700000072D480294FEF7E9FA4FF440606946DA
:102A8000CDE9000727480294FEF7E0FA4FF48140B1
:102A900069468DE8510023480396FEF7D7FA23488C
:102AA0006946CDE90094CDE90245FEF7CFFA0C2046
:102AB0006946CDE900041E48CDE90245FEF7C6FA95
:102AC000402069468DE8510019480396FEF7BEFA8A
:102AD00080206946CDE9000615480296FEF7B6FA51
:102AE00012486946CDE900460294FEF7AFFA00228B
:102AF00002210620FEF700FC0620FEF7EFFB002275
:102B000002212820FEF7F8FB2820FEF7E7FB07B09C
:102B1000BDE8F08F30380240001402400008024047
:102B2000000002400004024000100240000C02407D
:102B300000180240000011100000211030B58DB0C7
:102B400024216846FDF7BEFB124800244FF6FF73B0
:102B50000F4D099401210A9403220B94C0E90054FB
:102B6000C0E90243046184610092CDE9014103940C
:102B70000494CDE90541694607940894FFF7C6FA25
:102B8000044809A909940B94FFF72CFA0DB030BD45
:102B900000040040BC02022030B58DB024216846FC
:102BA000FDF790FB124800244FF6FF730F4D099478
:102BB00001210A9403220B94C0E90054C0E90243A6
:102BC000046184610092CDE9014103940494CDE94C
:102BD0000541694607940894FFF798FA044809A943
:102BE00009940B94FFF7FEF90DB030BD00080040CA
:102BF000FC0202200A48002130B4084C0C224FF499
:102C0000E1330460C0E90131C160C0E904128161AF
:102C1000C1610162416230BCFFF7B6BC00500040A8
:102C2000BC0302200A48002130B4084C0C224FF4A7
:102C3000E1330460C0E90131C160C0E9041281617F
:102C4000C1610162416230BCFFF79EBC0048004098
:102C50003C0402200A480021022230B40123C0E9CA
:102C6000032182610624C0E9073141624FF0A0458B
:102C7000C0E90B31C0E9005430BCFEF783BB000053
:102C8000BC0402202DE9F047844E0025844FDFF874
:102C90001482DFF814923068844C002850D06420ED
:102CA000FDF756FF3560A078902820D096282BD0CD
:102CB000C02845D194F9060010B101280DD03FE09D
:102CC0000126A6710021304679A202F01BFF667131
:102CD0000AE000BF02F0BAFE32E00021A571012037
:102CE00078A202F00FFF657100210120F2E70021B8
:102CF000012079A202F006FF0021022077A202F053
:102D000001FF06210220E5E70021022074A202F063
:102D1000F9FE0021012070A202F0F4FE0021022041
:102D200002F094FE386801280AD12079012894F92C
:102D3000080000EE100AB8EEC00B0ED089ED000BB3
:102D4000684E306860B36420FDF702FF3560A078FC
:102D5000902805D0962823D10FE088ED000BEFE7EF
:102D6000002101205DA202F0CDFE002102205AA226
:102D700002F0C8FE0021012010E0207A5AA1401D77
:102D800042B24A482272483002F062FA474A0121B0
:102D90000220483202F0B6FE0621022002F056FE62
:102DA000534E306838B36420FDF7D2FE3560A0780A
:102DB00096280DD0C0281ED10021022048A202F082
:102DC000A1FE0021012044A202F09CFE00210FE0A0
:102DD000207A45A1401F42B234482272483002F0A6
:102DE00037FA324A01210220483202F08BFE0621D6
:102DF000022002F02BFE3F4E306800282AD06420CB
:102E0000FDF7A6FE356002F015FEA078962823D0C7
:102E100002F000FE207902283ED037A200210846A9
:102E200002F070FE0021012037A202F06BFE0021AB
:102E3000022038A202F066FE0021032038A202F030
:102E400061FE0021084602F001FE02F0F3FD374961
:102E500003200860BDE8F0870021022020A202F0D4
:102E600051FE002101201CA202F04CFE0021022094
:102E700002F0ECFD38680128ECD12079012894F9A2
:102E8000080000EE100AB8EEC00B02D089ED000B6E
:102E9000E0E788ED000BDDE725A2BFE73C0002205C
:102EA00018000220A8000220A00002203C010220FD
:102EB000205374617475733A2052756E6E696E6733
:102EC00000000000205374617475733A2053746FCE
:102ED0007020202000000000200000002A000000D8
:102EE0002B0000004000022053503A2533640000BC
:102EF0004400022048000220204D6F64653A2050B3
:102F00006F736974696F6E00205365742050494473
:102F1000313A20002053657420504944323A200051
:102F20002052655F7365743A20000000380002206B
:102F3000204D6F64653A2056656C6F636974790043
:102F4000FEE7000006480022022110B5FEF76FF9E7
:102F500000230448BDE810401A461946FDF720BC7E
:102F600000040240600202207047000070B502F0C9
:102F700051FD032101202CA202F0C4FD2D4C20782C
:102F800000282CD102F046FD2079012846D02AA243
:102F90000021084602F0B6FD94F9060001283FD052
:102FA00000283FD028A20021012002F0ABFD002123
:102FB000022029A202F0A6FD0021032028A202F08F
:102FC000A1FD02F02BFD0021012027A202F09AFDB5
:102FD0000021012002F03AFD24490220086000246B
:102FE000234D286818B16420FDF7B2FD2C60214DF7
:102FF000286818B16420FDF7ABFD2C601E4D2868D1
:1030000018B16420FDF7A4FD2C601C4D2868002831
:1030100003D06420FDF79CFD2C6070BD18A2B7E7BB
:103020001BA2C0E71FA2BEE750435F4D6F6465203F
:10303000200000003C010220204D6F64653A2056BC
:10304000656C6F6369747900205374617475733AA9
:1030500020496E69740000002053503A200000009F
:103060002050563A200000002A00000038000220BC
:103070003C000220400002204400022048000220C0
:10308000204D6F64653A20506F736974696F6E00EC
:10309000205374617475733A2052756E6E696E6751
:1030A00000000000205374617475733A2053746FEC
:1030B000702020200000000070B55F4CA4F180005B
:1030C0002DED088B00F580759FED5C3B9FED5D5B02
:1030D0009FED5E7B90ED1E1B94ED0A0B30EE412BB5
:1030E00084ED1C2B94ED0C0B20EE029B85ED089BD0
:1030F00094ED0E4B94ED061B24EE020B00EE031B29
:1031000084ED061B94ED10AB95ED008B39EE010BB1
:103110008AEE036B32EE488B26EE088B85ED0A8B28
:1031200030EE080B85ED002B84ED1A0BB4EEC50BC9
:10313000F1EE10FA90ED1C6B04DD30EE450B26EE3F
:10314000042B34E09FED43ABB4EECA0BF1EE10FA62
:103150000ED2B5EEC00BF1EE10FA09DBB5EEC02BC6
:10316000F1EE10FA04DD30EE4A0B26EE042B1EE0E1
:10317000B4EEC70BF1EE10FA04D230EE050B26EEDA
:10318000042B14E09FED35BBB4EECB0BF1EE10FA3F
:1031900013DDB5EEC00BF1EE10FA0ED2B5EEC02B7A
:1031A000F1EE10FA09D230EE0A0B26EE042B22EED5
:1031B000000B00EE431B84ED061B94ED060B39EE6D
:1031C000000B30EE080B84ED1A0BB4EEC50BF1EEDC
:1031D00010FA01DD84ED1A5B94ED1A0BB4EEC70B07
:1031E000F1EE10FA01D284ED1A7B94ED1A0BB5EED4
:1031F000C00BF1EE10FA03DB85ED0C0B02F098FE2C
:1032000094ED1A0BB5EEC00BF1EE10FA05D2B1EE4B
:10321000400B85ED0C0B02F06BFE95ED0C0B0022C4
:1032200010481146BCEEC00BBDEC088BBDE87040E9
:1032300010EE103AFDF7B4BA800002207B14AE47BE
:10324000E17A843F0000000000FEAF400000000073
:1032500000FEAFC000000000000079400000000048
:10326000000079C0600202202DE9F047F84D0027E8
:10327000F84C286878B36420FDF76AFC2F60A078CA
:10328000C82830D014DC99283CD008DC902830D0F5
:10329000962830D0972831D0982845D130E09B2807
:1032A00032D0C02818D0C62818D0C7283CD118E082
:1032B000D7282FD008DCC92817D0CB2817D0D02882
:1032C00024D0D62830D123E0D82825D0D92825D01D
:1032D000DB2829D124E027E0062100E00721012096
:1032E00020E00821FBE70921F9E70B21F7E70C2192
:1032F000F5E7062100E00721022013E00821FBE7A3
:103300000921F9E70B21F7E70C21F5E7062108E091
:10331000072106E0082104E0092102E00B2100E07A
:103320000C21032002F092FBDFF82C9363264FF46C
:103330007A7A40F2E735D9F8000088B36420FDF7C7
:1033400007FCC9F800704FF00108A078C8287DD0AC
:1033500016DC9B287BD00ADCA0F190010A292ED232
:10336000DFE801F02A2D2D2D2D2DBAC4C7CA9C28C7
:103370006ED0C0281ED0C6286BD0C7281FD19AE0B7
:10338000D72867D00DDCCC2865D004DCC9287AD0DA
:10339000CB2814D199E0D02876D0D6280FD1B6E02A
:1033A00051E0D82871D0D92870D0DB286FD0DC2824
:1033B00005D1C9E00021B2E000217AE0E07050467A
:1033C000A189814200D3A581617A632900D96672FF
:1033D000218A814200D32582E17A632900D926829D
:1033E000E189514500D3E581A07A632800D9E681BF
:1033F0009AA19848637AA289483001F029FF954A3A
:1034000007210120483202F07DFB924893A1E37A24
:10341000228A483001F01CFF8E4A072102204832E0
:1034200002F070FB8B488DA1A37AE289483001F04D
:103430000FFF884A07210320483202F063FBE1783E
:10344000002002F07FFBDFF81C9205E036E057E039
:1034500059E026E068E03BE0D9F80000002870D091
:103460006420FDF775FBC9F800704FF0FF38A078B5
:10347000C82867D077DC9B2873D069DCA0F1900165
:103480000A296FD204E01CE009E050E052E055E068
:10349000DFE801F0848787878787F7F6F5F4002156
:1034A00022E00621012070A202F02CFB0621C4F8C4
:1034B0003C80012034E0A189643104E0A1890A3113
:1034C00001E0A189491CA18178E7617A0A3101E014
:1034D000617A491C617271E70621022062A202F042
:1034E00011FB0621C4F84080022019E0218A6431D2
:1034F00004E0218A0A3101E0218A491C21825DE72A
:10350000E17A0A3101E0E17A491CE17256E70621CD
:10351000032055A202F0F6FA0621C4F844800320E5
:1035200002F094FAA07849E7E189643104E0E18986
:103530000A3101E0E189491CE1813FE7A17A0A31C2
:1035400004E072E0ADE00EE0A17A491CA17235E71B
:103550009C287AD0C0281FD0C62877D0C72820D171
:103560009CE0C0E01DE0D72871D00CDCCC287FD0D7
:1035700004DCC9287DD0CB2813D199E0D02879D09C
:10358000D6280ED1B6E0D82875D0D92874D0DB283B
:1035900073D0DC2805D1C9E0002198E00021B1E01A
:1035A000E0705046A189814200D3A581617A6329E8
:1035B00000D96672218A814200D32582E17A63298B
:1035C00000D92682E189514500D3E581A07A63289C
:1035D00000D9E68121A11F48637AA289483001F011
:1035E00037FE1C4A07210120483202F08BFA1948A5
:1035F0001AA1E37A228A483001F02AFE154A0721EF
:103600000220483202F07EFA124814A1A37AE2891D
:10361000483001F01DFE0F4A07210320483202F016
:1036200071FAE178002002F08DFA104D2868002828
:1036300070D06420FDF78CFA2F60A078A0F1C10152
:103640000F2977D20021012080E04FE01CE05EE0EE
:103650003C0002203C010220400002202533642C63
:1036600025326400440002202B00000048000220A4
:1036700021E019E006E04FE051E054E02FE02BE0BC
:1036800027E01CE0002107E006210120ABA202F0A8
:1036900039FA0621C4F83C80012034E0A18964395C
:1036A00004E0A1890A3901E0A189491EA18177E7D7
:1036B000617A0A3901E0617A491E617270E7062178
:1036C00002209EA202F01EFA0621C4F840800220C9
:1036D00019E0218A643904E0218A0A3901E0218A4B
:1036E000491E21825CE7E17A0A3901E0E17A491E4C
:1036F000E17255E70621032090A202F003FA0621A9
:10370000C4F84480032002F0A1F9A07848E7E189D9
:10371000643906E0B0E00DE0E1890A3901E0E189B1
:10372000491EE1813CE7A17A0A3901E0A17A491EEC
:10373000A17235E7A0F191010F2902D200210220E8
:1037400004E0D1380F2805D200210320BDE8F0475E
:1037500002F07CB902F05EF9207901287DD078A2D0
:103760000021084602F0CEF90021012078A202F0E3
:10377000C9F90021022079A202F0C4F90021032036
:1037800079A202F0BFF902F055F903209FED790A02
:103790007A49794D08606069012872D002286BD19E
:1037A000607AA18901EE100AD4ED0F0AF8EE411AF1
:1037B00001EE101AF8EEE00A81EE802AB8EE411A06
:1037C00032EE011A61EE200AC4ED090AE07A218A7C
:1037D00001EE100A00EE901AD4ED101AB8EE411A5C
:1037E000F8EE600A81EE002AB8EEE11A72EE200AC5
:1037F00060EE810AC4ED0A0AA07AE18900EE900A1F
:1038000094ED111A0220F8EE601A00EE901A0021D1
:1038100081EE802AB8EE600AF8EEC10A32EE000AA4
:1038200020EE200A84ED0B0A94ED0C0A84ED060AC2
:1038300094ED0D0A84ED070A94ED0E0A84ED080A52
:1038400002F004F92868012816D194ED090A4C48C1
:10385000B7EEC00A80ED000B00E010E094ED0A0A1C
:103860004848B7EEC00A80ED000B94ED0B0A4648BD
:10387000B7EEC00A80ED000BBDE8F08701E043A27F
:103880006EE7607AA18900EE900A94ED0F1AB8EE07
:10389000602A00EE901AB8EEC11AC2EE001AF8EED5
:1038A000600A71EEA00A60EE810AC4ED060AE07AB1
:1038B000218A01EE100A01EE901AD4ED100AB8EE3A
:1038C000411AF8EE611AF8EEE00A81EE002A32EEB3
:1038D000211A61EE200AC4ED070AA07AE18900EE00
:1038E000900A94ED111A0120F8EE601A00EE901A79
:1038F000002181EE802AB8EE600AF8EEC10A32EEAD
:10390000000A20EE200A84ED080A02F09FF82868D9
:103910000128B1D194ED060A2048B7EEC00A80ED27
:10392000000B94ED070A1E48B7EEC00A80ED000BAD
:1039300094ED080A1B48B7EEC00A9BE72D00000073
:10394000204D6F64653A2056656C6F636974790029
:103950002053657420504944313A20002053657447
:1039600020504944323A20002052655F7365743A12
:10397000200000000000C842180002203800022089
:10398000C8000220D0000220D8000220204D6F6421
:10399000653A20506F736974696F6E00B000022041
:1039A000B8000220C000022070B53D4C9FED3D3BA9
:1039B00004F180059FED3D6B9FED3E5B9FED3F2B3E
:1039C0002DED048B94ED080B94ED181B30EE410B9C
:1039D00084ED1C0B94ED121B21EE004B84ED024B89
:1039E00094ED147B94ED041B27EE007B07EE031B84
:1039F00084ED041B94ED169B34EE014B89EE037BA2
:103A000095ED001B94ED008B30EE413B28EE061B3C
:103A100027EE033B03EE051B84ED1E1B34EE013B3A
:103A200084ED001B85ED000B84ED1A3BB4EEC23B28
:103A3000F1EE10FA01DD84ED1A2B9FED220B94EDCF
:103A40001A1BB4EEC01BF1EE10FA02D394ED1A0B60
:103A500001E084ED1A0BB5EEC00BF1EE10FA03DBBA
:103A600085ED0C0B02F064FA94ED1A0BB5EEC00B69
:103A7000F1EE10FA05D2B1EE400B85ED0C0B02F021
:103A800037FA95ED0C0B002210481146BCEEC00B26
:103A9000BDEC048BBDE8704010EE103AFCF780BE20
:103AA000800002207B14AE47E17A843F3333333306
:103AB0003333D33F666666666666E63F0000000005
:103AC00000FEAF400000000000FEAFC06002022018
:103AD00070470000FCB55B4900255B4C6F4601F563
:103AE000E46201F5E8630E78284666704E78A670A9
:103AF0008E781670CE7E1E70009501950E18F678A1
:103B00003E54401C0828F9DB9DED002B002082ED7F
:103B1000022B0E18F67A3E54401C0828F9DB9DED66
:103B2000003B002082ED043B0E18F67C3E54401C06
:103B30000828F9DB9DED001B002082ED061B0E1806
:103B4000367F3E54401C0828F9DB9DED000B002019
:103B500083ED020B0E1896F824603E54401C082892
:103B6000F8DB9DED005B002083ED045B0E1896F8FA
:103B70002C603E54401C0828F8DB9DED004B0020D3
:103B800083ED064B0E1896F834603E54401C08280E
:103B9000F8DBBDF9000006EE100A2C48B8EEC66B43
:103BA00080ED006BBDF9021006EE101AB8EEC66B80
:103BB00080ED026BBDF9041006EE101AB8EEC66B6C
:103BC00080ED046B9DF8061006EE101AB8EE466BF9
:103BD00080ED086B9DF8071006EE101AB8EE466BE4
:103BE00080ED066B1848E6704C3080ED0C2B80EDB4
:103BF0000E3B80ED101B80ED120B9FED150B80ED41
:103C0000145B80ED164B26EE001B107800EE100AB8
:103C10000D48B8EE400BCC3080ED040B197800EE67
:103C2000101AA0F58071B8EE400B80ED020B80ED0C
:103C3000061B0E616078012801D00D73FCBD0120C8
:103C40000873FCBDA00102203400022000090220FC
:103C50000000000000408F407047000010B5874A08
:103C60002DED0C8B906900287ED1854802F18001F2
:103C7000B7EE000B034690ED084B93ED001BB4EE3E
:103C8000404BF1EE10FA01D181ED0A1B7C489FED0B
:103C90007D0BB0EE003B90ED042BB4EE434B0023C4
:103CA000F1EE10FA22EE002B90ED023B37D190EDB1
:103CB000046B9FED745BB6EE000B506A26EE055B5D
:103CC000002825EE000B0ADB05EE100AB8EEC55BF6
:103CD000B4EEC50BF1EE10FA01DD81ED0A1B05EE25
:103CE000100AB8EEC55BB4EEC50BF1EE10FA0AD8B7
:103CF00000EE100AB8EEC00BB4EEC02BF1EE10FAD5
:103D000001DD81ED0A3B0A30506200EE100AB8EE88
:103D1000C00BB4EEC02BF1EE10FA00D85362B0EE37
:103D2000080BB4EE404BF1EE10FA1DD1544890ED63
:103D3000046B9FED545BB0EE084BB4EE000B26EE27
:103D4000055B506A002825EE048B28EE005B0ADB39
:103D500004EE100AB8EEC44BB4EEC45BF1EE10FAF8
:103D600001DD81ED0A1B00E085E0454C9FED456BD0
:103D700004EE100AB1EE009B94EC06BBB8EEC4ABA7
:103D8000B4EE007BB4EECA5B3BEE4C4B2DEE066B03
:103D9000F1EE10FA26EE099B26EE075B29EE076B83
:103DA00016D807EE100AB8EEC77BB4EEC76BF1EE7B
:103DB00010FA0DDD07EE100AB0EE409BB8EEC77B9F
:103DC00008EE497B87EE058B08EE441B81ED0A1B4C
:103DD0002B4C9FED2C9B01EE100A94ED04ABB1EE41
:103DE0000C7BB4EE008B2AEE09ABB8EEC19BB4EEAF
:103DF000C96B2AEE071BF1EE10FA21EE086B0AD808
:103E000007EE100AB8EEC77BB4EEC76BF1EE10FAFE
:103E100001DD81ED0A3B07EE100AB8EEC77BB4EE78
:103E2000C76BF1EE10FA1AD8B2EE007B06EE100A5C
:103E300022EE077BB8EEC66B27EE007BB4EEC67BA6
:103E4000F1EE10FA0BDD06EE100AB8EEC66B01EECD
:103E5000406B86EE050B00EE043B81ED0A3B0A3019
:103E6000506200EE100AB8EEC00BB4EEC02BF1EEBB
:103E700010FA00D85362BDEC0C8B10BD000002207C
:103E8000000902200000000000408F4010B5BE492C
:103E90002DED0A8B886900287DD1BC4B01F1800291
:103EA000486AB7EE000B0A30486293ED086B93ED59
:103EB000001BB4EE406BF1EE10FA01D182ED081B4D
:103EC000B24B9FEDB30BB0EE004B93ED023BB4EE63
:103ED000446B93ED005B93ED042B0024F1EE10FA9C
:103EE00035EE434B22EE002B7ED193ED048B9FEDFC
:103EF000A87B9FEDA95B002828EE077BB2EE040BA0
:103F000027EE055B0CDB07EE100AB8EEC77B85EEEB
:103F1000008BB4EEC78BF1EE10FA01DD82ED081BC9
:103F20009A4B93ED04CB9FED9ABB07EE100AB1EECE
:103F300004AB9FED9B9B85EE008B2CEE0B5BB8EEEC
:103F4000C77B25EE0A5BB4EEC78BF1EE10FA1AD8E8
:103F500007EE100AB8EEC7AB85EE007BB4EECA7B65
:103F6000F1EE10FA0FDD82EE09AB07EE100AB8EEA3
:103F7000C77B37EE487B87EE0A8BB0EE417B08EEBD
:103F8000447B82ED087B814B93ED04BB9FED80ABBE
:103F900007EE100A00E0D1E09FED838B85EE00CBA9
:103FA0002BEE0A5BB8EEC77B25EE085BB4EEC7CB01
:103FB000F1EE10FA0CD885EE008B07EE100AB8EE81
:103FC000C77BB4EEC78BF1EE10FA01DD82ED083B42
:103FD00007EE100AB8EEC78B85EE007BB4EEC87B07
:103FE000F1EE10FA1AD800E022E000EE100AB8EE66
:103FF000C00BB4EEC02BF1EE10FA0FDD82EE095BC0
:1040000000EE100AB8EEC00B30EE470B80EE057BD9
:10401000B0EE430B07EE040B82ED080B00EE100A26
:10402000B8EEC00BB4EEC02BF1EE10FA00D84C6223
:10403000B0EE080BB4EE406BF1EE10FA7ED15348AF
:1040400090ED047B9FED526BB0EE085BB4EE000B7D
:1040500027EE066B486A002826EE058B28EE005BEB
:104060000ADB06EE100AB8EEC66BB4EEC65BF1EEE4
:1040700010FA01DD82ED081B444B93ED04BB9FED6C
:10408000449B07EE100AB1EE00AB2BEE099BB4EE99
:10409000006BB8EEC7BBB4EECB5B29EE0AAB29EEE2
:1040A000067BF1EE10FA2AEE065B16D806EE100A31
:1040B000B8EEC66BB4EEC65BF1EE10FA0DDD06EE9F
:1040C000100AB0EE409BB8EEC66B08EE496B86EE68
:1040D000078B08EE441B82ED081B2C4B9FED2C9B9D
:1040E000B1EE0C6B93ED04AB01EE100AB4EE008B55
:1040F0002AEE099BB8EEC11BB4EEC15B29EE066B3C
:10410000F1EE10FA26EE081B0AD805EE100AB8EEFA
:10411000C55BB4EEC51BF1EE10FA01DD82ED083B84
:1041200005EE100AB8EEC55BB4EEC51BF1EE10FA51
:104130001CD8B2EE005B01EE100A00E020E022EE97
:10414000055BB8EEC11B25EE005BB4EEC15BF1EE82
:1041500010FA0BDD01EE100AB8EEC11B06EE401B93
:1041600081EE070B00EE043B82ED083B00EE100AE7
:10417000B8EEC00BB4EEC02BF1EE10FA00D84C62D2
:10418000BDEC0A8B10BD00000000022000090220D7
:104190000000000000408F409A9999999999134026
:1041A0000000000000005940CDCCCCCCCCCC23404A
:1041B0002DE9F047FF4E0027DFF8FC934FF002088F
:1041C000FE4C2DED028B306800282BD06420FCF7CC
:1041D000BFFC37600125A07880280BD09FEDF88ABE
:1041E000AE1E4FF0040A90287ED0C02823D0D028DD
:1041F00018D197E12079022815D00021F1A20846B4
:1042000001F080FCF34884F8048000BF90ED000BBF
:104210000021BDEEC00B10EE100A20724FEA010023
:1042200001F014FCCAE00021EBA2084601F06AFC90
:10423000ED482571EAE7656101F0ECFB94ED060AB3
:10424000B5EEC00AF1EE10FA01D2E66300E0E563D4
:1042500094ED071AB5EEC01AF1EE10FA01D22664F9
:1042600000E02564D4ED081AF5EEC01AF1EE10FA5C
:1042700001D2666400E065646421D4ED0F0A0B4648
:104280000A46B8EEE02AF8EEE00A22EE002A60EED6
:10429000800ABCEEC20A10EE100A80B2A08141432F
:1042A00000EE101AB8EE400A10EE880ABCEEC00A02
:1042B00010EE100A607294ED100AF8EEC00AB8EE23
:1042C000C00A20EE812A60EE010ABCEEC20A10EE9E
:1042D000100A80B2208200FB03F100EE101AB8EE43
:1042E000400A10EE880A00E07AE0BCEEC00A10EE48
:1042F000100AE07294ED110AF8EEC00AB8EEC00A96
:1043000020EEA11A60EE210ABCEEC10A10EE100ADE
:1043100080B2E08100FB02F1B4A200EE101AB8EE08
:10432000400A10EE880ABCEEC00A10EE100AA07215
:10433000EBE00021012001F0E5FBA048B0A1637A89
:10434000A289483000F084FF9C4A072101204832AE
:1043500001F0D8FB206C401C01D0ABA200E0ADA264
:104360000021022001F0CEFB9448A5A1E37A228A25
:10437000483000F06DFF914A07210220483201F0D9
:10438000C1FB606C401C7CD0A5A20021032001F081
:10439000B9FB8A489AA1A37AE289483000F058FF15
:1043A000864A07210320483201F0ACFB002101209E
:1043B00001F04CFB01F03EFBC9F800A09B4D2868C2
:1043C00000287DD06420FCF7C3FB2F60A0788028F4
:1043D00077D0902876D0C02875D0D02870D1B3E09F
:1043E000C4F8148001F016FB94ED060A84ED0C0A63
:1043F00094ED070A84ED0D0A94ED080A84ED0E0A87
:1044000094ED090A84ED060AB5EEC00AF1EE10FA41
:10441000D4ED0A1AC4ED071A94ED0B1A84ED081AAC
:1044200001D2E66300E0E563F5EEC01AF1EE10FAA2
:1044300001D2266400E02564B5EEC01AF1EE10FA50
:1044400001D2666400E065646421D4ED0F0A0B4676
:104450000A46B8EEE02AF8EEE00A22EE002A60EE04
:10446000800ABCEEC20A10EE100A80B2A08141435D
:1044700000EE101AB8EE400A10EE880ABCEEC00A30
:1044800000E04DE010EE100A607294ED100AF8EEB4
:10449000C00AB8EEC00A20EEA12A60EE210ABCEEE6
:1044A000C20A10EE100A80B2208200FB03F100EE77
:1044B000101AB8EE400A10EE880ABCEEC00A03E0FB
:1044C00046E038E03DE039E010EE100AE07294ED8D
:1044D000110AF8EEC00AB8EEC00A60EE811A60EE6A
:1044E000010ABCEEE10A10EE100A80B2E08100FB86
:1044F00002F14FA200EE101AB8EE400A10EE880A40
:10450000BCEEC00A10EE100AA0720021084601F0AD
:10451000F9FAE06B401C01D04AA20AE74CA208E776
:104520004EA232E7002103204FA201F0EBFA002156
:104530006570032074E60021032007E0002108468F
:1045400004E00021012001E00021022001F07EFAB8
:10455000494D2868D0B16420FCF7FAFA2F60A078A2
:10456000802806D090280AD0C02805D0D0280DD1A8
:1045700008E00021012007E00021022004E00021E2
:10458000032001E00021084601F060FA3B4D286855
:10459000002875D06420FCF7DBFA2F6001F03AFAAE
:1045A000207901286DD007A20021084601F0AAFA5F
:1045B000A07967E03C000220380002203C01022084
:1045C0000000C842204D6F64653A2056656C6F63E9
:1045D00069747900A0000220204D6F64653A205074
:1045E0006F736974696F6E00A80002202020504923
:1045F0004420506F736974696F6E202000000000C2
:104600002533642C25326400204B695F313A202B1E
:1046100000000000204B695F313A202D00000000AF
:10462000204B645F313A202B000000004000022044
:1046300020205049442056656C6F636974792020AE
:1046400000000000204B705F313A202B000000007A
:10465000204B705F313A202D00000000204B645F3A
:10466000313A202D000000002052657365743A2015
:10467000446F6E65000000004400022048000220E4
:104680001EE021E0012822D012A20021012001F029
:1046900039FA0021022013A201F034FA002103208C
:1046A00012A201F02FFA01F0B9F90021012011A2A4
:1046B00001F028FA0021012001F0C8F9C9F80080B2
:1046C000BDEC028BBDE8F087AFF2F4026CE70AA202
:1046D000DBE70000205374617475733A2053746FE4
:1046E000700000002053503A200000002050563A3D
:1046F000200000002A000000205374617475733A92
:104700002052756E6E696E6700000000FCF79ABD5E
:1047100030B5B7B0342124A8FBF7D4FD142131A85B
:10472000FBF7D0FD90216846FBF7CCFD1E480168E1
:1047300041F080510160006800F0805036901B48C5
:10474000016821F4404141F4804101600068012387
:104750000225990500F4404036900420CDE92A5105
:104760002CA960221C0481E825002F9024A8CDE903
:104770002434FDF783FAFCF7C1FEE80200240F2180
:10478000CDE93340359431A8CDE931150321FDF74A
:1047900089F90748159413941F9400906846FCF714
:1047A000E3FE37B030BD00004038024000700040EA
:1047B00000052000104A30B51048146800210F4B46
:1047C00044F470041460083305680D4A0D4C45F03C
:1047D0000105056019600368051D1340074A036061
:1047E0000C322C600568E305034C25F48025056038
:1047F000803C1160236030BD88ED00E0003802404D
:10480000FFFFF6FE10300024044810B5FBF74EFF02
:10481000BDE810400248FDF74CBD000060020220D8
:104820003C0302200148FDF744BD00007C03022048
:10483000F0B5274B4FF0804E264D02689842264E29
:10484000264F274C09D0704507D0A84205D0B0426A
:1048500003D0B84201D0A04205D1D1F804C022F063
:1048600070024CEA020298421BD0704519D0A8424F
:1048700017D0B04215D0B84213D0A04211D0194D74
:10488000A8420ED0184DA8420BD0184DA84208D00F
:10489000174DA84205D0174DA84202D0164DA84288
:1048A00003D1CD6822F440722A434D6922F0800280
:1048B0002A43026098428A68C2620A68826201D012
:1048C000A04201D10969016301214161F0BD0000ED
:1048D000000001400004004000080040000C0040BF
:1048E00000040140004001400044014000480140F4
:1048F00000180040001C00400020004010B5046A71
:10490000012301F01F018B409C4304628A40016A2D
:104910001143016210BD00000148FDF7A1BD000078
:10492000BC03022090F82410C90706D00168836AEE
:104930004A6822F400321A434A6090F8241089072A
:1049400006D50168C36A4A6822F480321A434A6075
:1049500090F82410490706D50168036B4A6822F4D1
:1049600080221A434A6090F82410090706D501688E
:10497000436B4A6822F400421A434A6090F82410BC
:10498000C90606D50168836B8A6822F480521A43EF
:104990008A6090F82410890606D50168C36B8A687E
:1049A00022F400521A438A6090F82410490611D567
:1049B0000168036C4A6822F480121A434A60016C51
:1049C000B1F5801F06D10168436C4A6822F4C00229
:1049D0001A434A6090F82410090606D50168826CD3
:1049E000486820F4002010434860704738B500251F
:1049F0000446C567FCF720FC0346206800680007F2
:104A00000BD56FF07E400090002220464FF400113D
:104A100000F0B8F908B1032038BD2020606784F8A1
:104A20007050A067002038BD10B5806B0021A0F841
:104A30005A10A0F85210FDF712FD10BD70B5846B2E
:104A400000252168606FA66F8968090606D52128B0
:104A500004D1A4F85250204600F061F82068806824
:104A6000400606D5222E04D1A4F85A50204600F064
:104A700046F8E06F40F01000E0672046FDF7EFFCDD
:104A800070BD10B5C169806BB1F5807F13D0002176
:104A9000A0F85A10202201680B6823F480730B6081
:104AA00001688B6823F001038B6001688B6823F039
:104AB00040038B608267FDF799FE10BD10B5806BD7
:104AC000FDF79AFE10BD10B5C169806BB1F5807F0E
:104AD0000DD00021A0F8521001688A6822F08002EF
:104AE0008A600068016841F04001016010BDFDF777
:104AF000CFFE10BD10B5806BFDF7CBFE10BD10B51D
:104B00000168202200230C6824F490740C60016872
:104B10008C6824F001048C608267036610BD016814
:104B200020220B6823F0C0030B604267704700002F
:104B30002DE9F04104468068DFF818C2864F2368EB
:104B4000D4E90452E16928431E6800250A438349D9
:104B5000104306EA0C0606431E604FF4004220682C
:104B6000E668436823F44053334343602368A669EF
:104B7000206AD3F808C030432CF4306606439E60A8
:104B80002068B8420AD1086810F0030052D001280A
:104B90007BD002287AD003286ED186E0704B9842F1
:104BA0000AD1086810F00C0079D004287BD00828BE
:104BB00077D00C2860D178E06A4B98420AD1086817
:104BC00010F030006BD010286DD0202869D030282C
:104BD00052D16AE0644B98420AD1086810F0C000D4
:104BE0005DD040285FD080285BD0C02844D15CE0F5
:104BF0005E4B98420DD1086810F440704FD0B0F56C
:104C0000807F50D0B0F5007F4BD0B0F5407F33D1DE
:104C10004BE0574B98420FD1086810F4406009D020
:104C2000B0F5806F3FD0B0F5006F3AD0B0F5406F6F
:104C300022D13AE0012120E04E4B98420DD1086884
:104C400010F440502BD0B0F5805F2CD0B0F5005F51
:104C500027D0B0F5405F0FD127E0474B98420BD1EA
:104C6000086810F440401AD0B0F5804F1BD0904235
:104C700017D0B0F5404F18D01021E0694FF6EF760D
:104C8000904238D109295DD202E00CE009E006E04B
:104C9000DFE801F00D1027582A5858582D00002140
:104CA000EBE70221E9E70421E7E70821E5E7FCF764
:104CB00095FF01E0FCF7A2FF0146D4F8040049008B
:104CC00001EB5001B1FBF0F080B2A0F11001B14254
:104CD00038D84FF6F0732168C0F3420218401043F1
:104CE00024E026496068EBE7FCF798FFE4E760689A
:104CF0004FF48031E4E7092924D2DFE801F0050808
:104D000019231C2323231F00FCF768FF01E0FCF795
:104D100075FF0146D4F8040001EB5001B1FBF0F03F
:104D200080B2A0F11001B1420CD82168C8600AE03D
:104D300013496068F0E7FCF771FFEAE7606802EB8F
:104D40005001EBE701250020206660662846BDE89B
:104D5000F0810000F369FFEF00100140903802403D
:104D60000044004000480040004C0040005000401B
:104D70000014014000780040007C00400048E80139
:104D80000024F4002DE9F041984617460E460446EB
:104D9000069D08E0681C06D0FCF74EFAA0EB080060
:104DA000A8420BD855B12068C06936EA000017D078
:104DB0000020B842EED00020BDE8F081216820201C
:104DC00000220B6823F4D0730B6021688B6823F0FA
:104DD00001038B606067A067032084F87020EBE715
:104DE0000120E6E770B504460698049D0D99012858
:104DF00015D0E06840F04000E060204600F028F860
:104E0000A16B41F48031A163012D07D1A16841F06C
:104E10000601A160A16841F02001A16070BDA06BF6
:104E200001290A4A20F48030A063E06800EA020009
:104E3000E060E06820F44010E06003D1E06840F4F6
:104E40008010E060204600F003F8DDE7BFFFBDFF03
:104E50000C49012202E0521C8A420BD80369002B44
:104E6000F9DA0369012243F00103036104E0521CF3
:104E70008A4201D9032070470369DB07F7D100207C
:104E800070470000400D030010B5D0F8041841F041
:104E90000201C0F804180320FBF75AFE002010BDE1
:104EA0002DE9F04F0E4604460021DDE90B2BDDF81D
:104EB00040800D46099F084604EB800CCCF8041195
:104EC000401C0F28F8D3A06BB8F1000F15D040F4A8
:104ED000001CC4F838C089460846C4F8000E2046B5
:104EE000D4F80018012AC4F8001833D0032A31D0AE
:104EF000D0F8001841F0030110E020F4001CC4F8C1
:104F000038C0206840F0400CC4F800C0206840F071
:104F1000800CC4F800C0DEE741F00101C0F80018C1
:104F2000102100F09BF800B10125204600F086F822
:104F300000B1012548464FF0006C4FF67F334FF02B
:104F4000904AC4F81098C4F81498C4F81C9800212A
:104F5000994619E0D0F80018002BDFD0DCE700BF3D
:104F600004EB4112D2F80039002B06DA11B1C2F875
:104F700000A904E0C4F800C901E0C2F80009C2F8C1
:104F80001009C2F80899491C8E42E9D8002113E0A3
:104F900004EB4112D2F8003B002B06DA11B1C2F843
:104FA00000AB04E0C4F800CB01E0C2F8000BC2F88B
:104FB000100BC2F8089B491C8E42E9D8D4F810188F
:104FC000012F21F480722146C4F8102808D1144B17
:104FD000144AC1F83038D1F830181143C4F83018E9
:104FE0006FF08041A06161611FB9A06940F01000BD
:104FF000A061A069BBF1000F0B4A40EA0200A0616A
:1050000003D0A06940F00800A061B8F1010F03D1FE
:10501000A06906490843A0612846BDE8F08F00005A
:10502000000180000300010000383C8004000040C3
:10503000816821F00101816000207047064A10213B
:1050400001610021491C914201D903207047036985
:10505000DB06F7D400207047400D03002023074AE9
:1050600043EA811303610021491C914201D90320C5
:10507000704703699B06F7D400207047400D03007A
:1050800010B5C268012922F0C042C26002D029B125
:10509000012010BDC16841F0005102E0C16841F03B
:1050A0008041C1603220FBF753FD002010BD00009D
:1050B00030B5264C89B001AD04F1800094ED1E1B83
:1050C00090ED0A0BE27AA17AFDEEC00BCDE9041255
:1050D000BDEEC10BCDED060A8DED070A90ED1A0B62
:1050E000E37BA27BBDEEC00B61698DED000A85E814
:1050F0000E0090ED180B16A1BDEEC00B10EE103A8D
:1051000090ED080B1C48BDEEC00B10EE102A00F00D
:105110009FF81949C2B26270412540312C2300200A
:105120000D704B70144B03E00D181C5C401CAC70F0
:1051300090421446F8DDA21C0F4909B0403101F538
:10514000CE70BDE83040FDF759BB000000000220E2
:10515000256C642C256C642C256C642C25692C250D
:10516000692C25692C25692C25692C256C642C2536
:105170006C640D0A00000000E001022010B51D4C17
:10518000A078E070207901282ED01BA200210846CB
:1051900000F0B8FC94F90600012827D040B31AA209
:1051A0000121084600F0AEFC12481BA194F908202A
:1051B000483000F04DF80F4A04210220483200F038
:1051C000A1FC0C4814A194F90720483000F040F8E5
:1051D000084A04210320483200F094FCE1780020C2
:1051E000BDE8104000F0AEBC0CA2CFE70FA2D7E79D
:1051F00012A2D5E73C010220204D6F64653A20568B
:10520000656C6F63697479005374617475733A20C7
:10521000496E69740000000025336400204D6F64FE
:10522000653A20506F736974696F6E0053746174CE
:1052300075733A2052756E6E696E670053746174AF
:1052400075733A2053746F7020202000FEE7000031
:105250000FB4084B10B504A902AA039800F02CF86B
:10526000044602A9002000F0C8F9204610BC5DF8F1
:1052700014FB0000FB550008090700284FEA1161E4
:1052800004DB00F1E02080F80014704700F00F000C
:1052900000F1E02080F8141D704702E008C8121FDA
:1052A00008C1002AFAD170477047002001E001C10F
:1052B000121F002AFBD170472DE9FF4F8BB08846A3
:1052C0000546002606E025280BD0DDE90D129047A3
:1052D0006D1C761C28780028F5D10FB03046BDE84B
:1052E000F08F0024A146A2460122AE4900E004430B
:1052F00015F8013F203B02FA03F00842F7D1287865
:105300002A2810D06FF02F022878A0F13001092947
:1053100015D809EB890102EB410144F0020400EBCE
:1053200001096D1CF0E758F8041B5FEA010903D579
:1053300044F40054C9F1000944F002046D1C2878BB
:105340002E2817D115F8010F44F004042A280ED096
:105350006FF02F022878A0F1300109290AD80AEB52
:105360008A0102EB410100EB010A6D1CF2E758F8DB
:1053700004AB6D1C28786C280FD006DC4C2817D0A5
:1053800068280DD06A2814D104E0742810D07A2837
:105390000FD10DE044F400140AE044F4801401E05D
:1053A00044F440146978814202D104F580146D1CE4
:1053B0006D1C2878692865D006DC00288DD063280C
:1053C00027D0642806D15DE06E2808D073282AD043
:1053D000752877D0DDE90D129047761CE0E0C4F324
:1053E0000250022809D003280DD0D8F80010042854
:1053F0000DD00E6008F10408D2E0D8F80010F217C2
:10540000C1E90062F6E7D8F800100E80F2E70E70EE
:10541000F0E718F8041B8DF8001000208DF801004B
:10542000EB46012003E058F804BB4FF0FF30610762
:105430004FF0000701D40AE07F1C57450DDA874280
:10544000FADB1BF807100029F6D106E07F1C874223
:10545000FCDB1BF807100029F8D1DDE90D23A9EBCF
:1054600007008146214600F0B1F83044C61904E037
:10547000DDE90D121BF8010B90477F1EF8D2214683
:10548000484688E058F8040BC4F302514FF00A0B69
:10549000032900D100B2042900D140B2002802DA69
:1054A00040422D2102E0210505D52B218DF8241045
:1054B000012104E006E0E10710D02021F6E708AF63
:1054C000089113E058F8040BC4F302514FF00A0B93
:1054D000032900D180B2042900D1C0B20021EEE737
:1054E0005946FAF7FAFE303107F8011D0028F7D1C6
:1054F000ADEB070000F1200B600702D524F48034E7
:1055000001E04FF0010ADA4502DDAAEB0B0000E0F2
:105510000020824600EB0B0108980144A9EB010032
:105520000A90E00306D4DDE90D2321460A9800F035
:105530004DF806444FF0000908E009A911F80900E8
:10554000DDE90D12904709F10109761C089989459A
:10555000F3DBE0030CD5DDE90D2321460A9800F0CA
:1055600035F8064404E0DDE90D1230209047761C42
:10557000BAF10001AAF1010AF5DC05E0DDE90D123E
:1055800017F8010B9047761CBBF10001ABF1010B42
:10559000F4DC0A982146DDE90D2300F005F8064405
:1055A0006D1C97E6092801002DE9F041044600250D
:1055B0001E461746880404D405E039462020B0472B
:1055C0006D1C641EF9D52846BDE8F0812DE9F04137
:1055D000044600251E469046C80301D5302700E04A
:1055E0002027880404D505E041463846B0476D1CA5
:1055F000641EF9D52846BDE8F0810A68531C0B608B
:10560000107070472DE9F05F2DED028B72B6F54CEE
:105610000025DFF8D4B301264FF00209A069A0BB32
:10562000206A012816D004F134077102F878A070BE
:105630005846FBF7F7FDA073F102E0705846FBF700
:10564000F1FDE0732071787802280CD001280DD08C
:1056500070B10EE0E548A66306706661A5716571DC
:10566000E571257210E06571A57102E0667100E0D8
:10567000A671B87810B1E671257201E0E571267265
:105680006572FD7087F801902562A069D84F0128E6
:105690003FD1DFF86083206AD8B1DFF85CA34FF414
:1056A00000719AF80000A0705846FBF7BBFDA0738C
:1056B0004FF40061E0705846FBF7B4FDCF49E0734A
:1056C000207191F9000014280DD078B101280FD075
:1056D0000FE06661A5716571E571257288F800605B
:1056E00087F8009014E0A571657102E0A67100E0F2
:1056F000667198F90000022801D12572E67101282F
:1057000001D12672E5711420657208708AF8005084
:10571000266262B64FF0060A9FEDB98BDFF8C482AD
:10572000606908F1800801281ED002284FF0030BA1
:105730002ED0032856D0042823467AD029284FF0AB
:10574000050473D02A2872D0052871D0A54C0628EC
:1057500006D1FDF7F7FB3D70607A002800D1666145
:10576000BDEC028BBDE8F09F87F80090484688EDBD
:10577000048B88ED068B617A012906D00029EFD1D0
:10578000A1780129ECD16061EAE7C4F814A0E7E749
:105790003D7088ED048B88ED068B00F0A9FB00229C
:1057A00099484FF42F731146FAF7FAFF617A2046B1
:1057B0000129EAD00029D3D1C1780129D0D1934C55
:1057C0000022022321465B1C8B42FCDB521C632A15
:1057D000F7DB8F4B42F2107280ED1E8B1A60C0F81F
:1057E00014B0BDE7FAF7F0FEFDF7ACFB88ED048BD3
:1057F00088ED068B3D702046617A012901D019B1F0
:1058000007E0C0F814A004E08278012A01D1C0F8B2
:10581000149082781143A3D141790129A0D18179D3
:1058200000299DD1042161619AE702E029E069E045
:1058300093E0FAF7C9FE3E70587A012801D018B1FA
:1058400007E0C3F814A004E09978012901D1C3F856
:1058500014909978084304D19979012901D1C3F8AA
:1058600014B0997908438FD1D879012803D1292020
:10587000586188ED048B187A012885D12A20586157
:105880003DE0FAF7A1FE3E70FEF700FBFEF78CF854
:105890005448417A012901D019B107E0C0F814A099
:1058A00004E08278012A01D1C0F814908278114373
:1058B00004D18279012A01D1C0F814B08279114350
:1058C0008FD1C178012907D198ED080BB5EEC00B37
:1058D000F1EE10FA00D244610179012907D198ED67
:1058E000080BB5EEC00BF1EE10FA00DD4461017A51
:1058F000012999D1C179002996D12A21416188EDE8
:10590000068B2DE7FAF760FE3E70FEF7A7F9FDF76C
:10591000D3FB3448417A012901D019B107E0C0F81E
:1059200014A004E08278012A01D1C0F81490827892
:10593000114304D18279012A01D1C0F814B08279CF
:105940001143DED1C1790129DBD1017A0029D8D1F7
:105950002921416188ED048B02E7FAF735FE3D709D
:10596000FDF7F0FAFEF792FA1E4888ED048B88EDF9
:10597000068B417A012901D019B107E0C0F814A0C3
:1059800004E08278012A01D1C0F814908278114392
:1059900004D18279012A01D1C0F814B0827911436F
:1059A000AFD1017A012901D12A214161C1790129AF
:1059B000A7D1C178012906D198ED080BB5EEC00B2F
:1059C000F1EE10FA09D30179012908D198ED080BFD
:1059D000B5EEC00BF1EE10FA01DD4461C0E62921FD
:1059E0004161BDE600000220001002403C0102209F
:1059F00042010220400102203D010220410102201B
:105A00000000000000000000600202209F860100EC
:105A1000240800400121002000F094B80C2100204F
:105A200010B500F08FF802490020086010BD00009A
:105A3000380102200D21002010B500F083F8024942
:105A40000120086010BD00003801022070B50C4D27
:105A500068B101280ED002280FD0032806D101F129
:105A6000D0040020E1B200F06DF8AC7070BD01F11F
:105A70008004F6E701F1C004F3E701F19004F0E7D8
:105A80003C0102201E2010B5FBF762F81B4C0022DF
:105A900008212046FBF7CBFB012220461021FBF713
:105AA000C6FB002220462021FBF7C1FB0022204636
:105AB0004021FBF7BCFB002220460421FBF7B7FB8B
:105AC0000F4C012208212046FBF7B1FB00222046A3
:105AD0000821FBF7ACFB2821002000F033F80C2153
